{
  "_format": "hh-sol-artifact-1",
  "contractName": "LitNft",
  "sourceName": "contracts/LitNft.sol",
  "abi": [
    {
      "inputs": [],
      "stateMutability": "nonpayable",
      "type": "constructor"
    },
    {
      "anonymous": false,
      "inputs": [
        {
          "indexed": true,
          "internalType": "address",
          "name": "owner",
          "type": "address"
        },
        {
          "indexed": true,
          "internalType": "address",
          "name": "approved",
          "type": "address"
        },
        {
          "indexed": true,
          "internalType": "uint256",
          "name": "tokenId",
          "type": "uint256"
        }
      ],
      "name": "Approval",
      "type": "event"
    },
    {
      "anonymous": false,
      "inputs": [
        {
          "indexed": true,
          "internalType": "address",
          "name": "owner",
          "type": "address"
        },
        {
          "indexed": true,
          "internalType": "address",
          "name": "operator",
          "type": "address"
        },
        {
          "indexed": false,
          "internalType": "bool",
          "name": "approved",
          "type": "bool"
        }
      ],
      "name": "ApprovalForAll",
      "type": "event"
    },
    {
      "anonymous": false,
      "inputs": [
        {
          "indexed": true,
          "internalType": "address",
          "name": "from",
          "type": "address"
        },
        {
          "indexed": true,
          "internalType": "address",
          "name": "to",
          "type": "address"
        },
        {
          "indexed": true,
          "internalType": "uint256",
          "name": "tokenId",
          "type": "uint256"
        }
      ],
      "name": "Transfer",
      "type": "event"
    },
    {
      "inputs": [
        {
          "internalType": "address",
          "name": "to",
          "type": "address"
        },
        {
          "internalType": "uint256",
          "name": "tokenId",
          "type": "uint256"
        }
      ],
      "name": "approve",
      "outputs": [],
      "stateMutability": "nonpayable",
      "type": "function"
    },
    {
      "inputs": [
        {
          "internalType": "address",
          "name": "owner",
          "type": "address"
        }
      ],
      "name": "balanceOf",
      "outputs": [
        {
          "internalType": "uint256",
          "name": "",
          "type": "uint256"
        }
      ],
      "stateMutability": "view",
      "type": "function"
    },
    {
      "inputs": [],
      "name": "fetchNfts",
      "outputs": [
        {
          "components": [
            {
              "internalType": "string",
              "name": "name",
              "type": "string"
            },
            {
              "internalType": "string",
              "name": "imageUrl",
              "type": "string"
            },
            {
              "internalType": "string",
              "name": "encryptedDescription",
              "type": "string"
            },
            {
              "internalType": "string",
              "name": "encryptedSymmetricKey",
              "type": "string"
            }
          ],
          "internalType": "struct LitNft.nft[]",
          "name": "",
          "type": "tuple[]"
        }
      ],
      "stateMutability": "view",
      "type": "function"
    },
    {
      "inputs": [
        {
          "internalType": "uint256",
          "name": "tokenId",
          "type": "uint256"
        }
      ],
      "name": "getApproved",
      "outputs": [
        {
          "internalType": "address",
          "name": "",
          "type": "address"
        }
      ],
      "stateMutability": "view",
      "type": "function"
    },
    {
      "inputs": [
        {
          "internalType": "address",
          "name": "owner",
          "type": "address"
        },
        {
          "internalType": "address",
          "name": "operator",
          "type": "address"
        }
      ],
      "name": "isApprovedForAll",
      "outputs": [
        {
          "internalType": "bool",
          "name": "",
          "type": "bool"
        }
      ],
      "stateMutability": "view",
      "type": "function"
    },
    {
      "inputs": [
        {
          "internalType": "string",
          "name": "name",
          "type": "string"
        },
        {
          "internalType": "string",
          "name": "imageUrl",
          "type": "string"
        },
        {
          "internalType": "string",
          "name": "encryptedDescription",
          "type": "string"
        },
        {
          "internalType": "string",
          "name": "encryptedSymmetricKey",
          "type": "string"
        }
      ],
      "name": "mintLitNft",
      "outputs": [],
      "stateMutability": "nonpayable",
      "type": "function"
    },
    {
      "inputs": [],
      "name": "name",
      "outputs": [
        {
          "internalType": "string",
          "name": "",
          "type": "string"
        }
      ],
      "stateMutability": "view",
      "type": "function"
    },
    {
      "inputs": [
        {
          "internalType": "uint256",
          "name": "tokenId",
          "type": "uint256"
        }
      ],
      "name": "ownerOf",
      "outputs": [
        {
          "internalType": "address",
          "name": "",
          "type": "address"
        }
      ],
      "stateMutability": "view",
      "type": "function"
    },
    {
      "inputs": [
        {
          "internalType": "address",
          "name": "from",
          "type": "address"
        },
        {
          "internalType": "address",
          "name": "to",
          "type": "address"
        },
        {
          "internalType": "uint256",
          "name": "tokenId",
          "type": "uint256"
        }
      ],
      "name": "safeTransferFrom",
      "outputs": [],
      "stateMutability": "nonpayable",
      "type": "function"
    },
    {
      "inputs": [
        {
          "internalType": "address",
          "name": "from",
          "type": "address"
        },
        {
          "internalType": "address",
          "name": "to",
          "type": "address"
        },
        {
          "internalType": "uint256",
          "name": "tokenId",
          "type": "uint256"
        },
        {
          "internalType": "bytes",
          "name": "data",
          "type": "bytes"
        }
      ],
      "name": "safeTransferFrom",
      "outputs": [],
      "stateMutability": "nonpayable",
      "type": "function"
    },
    {
      "inputs": [
        {
          "internalType": "address",
          "name": "operator",
          "type": "address"
        },
        {
          "internalType": "bool",
          "name": "approved",
          "type": "bool"
        }
      ],
      "name": "setApprovalForAll",
      "outputs": [],
      "stateMutability": "nonpayable",
      "type": "function"
    },
    {
      "inputs": [
        {
          "internalType": "bytes4",
          "name": "interfaceId",
          "type": "bytes4"
        }
      ],
      "name": "supportsInterface",
      "outputs": [
        {
          "internalType": "bool",
          "name": "",
          "type": "bool"
        }
      ],
      "stateMutability": "view",
      "type": "function"
    },
    {
      "inputs": [],
      "name": "symbol",
      "outputs": [
        {
          "internalType": "string",
          "name": "",
          "type": "string"
        }
      ],
      "stateMutability": "view",
      "type": "function"
    },
    {
      "inputs": [
        {
          "internalType": "uint256",
          "name": "tokenId",
          "type": "uint256"
        }
      ],
      "name": "tokenURI",
      "outputs": [
        {
          "internalType": "string",
          "name": "",
          "type": "string"
        }
      ],
      "stateMutability": "view",
      "type": "function"
    },
    {
      "inputs": [
        {
          "internalType": "address",
          "name": "from",
          "type": "address"
        },
        {
          "internalType": "address",
          "name": "to",
          "type": "address"
        },
        {
          "internalType": "uint256",
          "name": "tokenId",
          "type": "uint256"
        }
      ],
      "name": "transferFrom",
      "outputs": [],
      "stateMutability": "nonpayable",
      "type": "function"
    }
  ],
  "bytecode": "0x60806040523480156200001157600080fd5b506040518060400160405280600781526020017f4c6974204e4654000000000000000000000000000000000000000000000000008152506040518060400160405280600681526020017f4c49544e4654000000000000000000000000000000000000000000000000000081525081600090816200008f91906200032c565b508060019081620000a191906200032c565b505050600160078190555062000413565b600081519050919050565b7f4e487b7100000000000000000000000000000000000000000000000000000000600052604160045260246000fd5b7f4e487b7100000000000000000000000000000000000000000000000000000000600052602260045260246000fd5b600060028204905060018216806200013457607f821691505b6020821081036200014a5762000149620000ec565b5b50919050565b60008190508160005260206000209050919050565b60006020601f8301049050919050565b600082821b905092915050565b600060088302620001b47fffffffffffffffffffffffffffffffffffffffffffffffffffffffffffffffff8262000175565b620001c0868362000175565b95508019841693508086168417925050509392505050565b6000819050919050565b6000819050919050565b60006200020d620002076200020184620001d8565b620001e2565b620001d8565b9050919050565b6000819050919050565b6200022983620001ec565b62000241620002388262000214565b84845462000182565b825550505050565b600090565b6200025862000249565b620002658184846200021e565b505050565b5b818110156200028d57620002816000826200024e565b6001810190506200026b565b5050565b601f821115620002dc57620002a68162000150565b620002b18462000165565b81016020851015620002c1578190505b620002d9620002d08562000165565b8301826200026a565b50505b505050565b600082821c905092915050565b60006200030160001984600802620002e1565b1980831691505092915050565b60006200031c8383620002ee565b9150826002028217905092915050565b6200033782620000b2565b67ffffffffffffffff811115620003535762000352620000bd565b5b6200035f82546200011b565b6200036c82828562000291565b600060209050601f831160018114620003a457600084156200038f578287015190505b6200039b85826200030e565b8655506200040b565b601f198416620003b48662000150565b60005b82811015620003de57848901518255600182019150602085019450602081019050620003b7565b86831015620003fe5784890151620003fa601f891682620002ee565b8355505b6001600288020188555050505b505050505050565b61375a80620004236000396000f3fe608060405234801561001057600080fd5b50600436106100f55760003560e01c80636352211e11610097578063a22cb46511610066578063a22cb46514610284578063b88d4fde146102a0578063c87b56dd146102bc578063e985e9c5146102ec576100f5565b80636352211e146101ea57806370a082311461021a57806395d89b411461024a5780639fd316ad14610268576100f5565b8063095ea7b3116100d3578063095ea7b31461017857806320de9a631461019457806323b872dd146101b257806342842e0e146101ce576100f5565b806301ffc9a7146100fa57806306fdde031461012a578063081812fc14610148575b600080fd5b610114600480360381019061010f9190611e50565b61031c565b6040516101219190611e98565b60405180910390f35b6101326103fe565b60405161013f9190611f43565b60405180910390f35b610162600480360381019061015d9190611f9b565b610490565b60405161016f9190612009565b60405180910390f35b610192600480360381019061018d9190612050565b6104d6565b005b61019c6105ed565b6040516101a99190612214565b60405180910390f35b6101cc60048036038101906101c79190612236565b610925565b005b6101e860048036038101906101e39190612236565b610985565b005b61020460048036038101906101ff9190611f9b565b6109a5565b6040516102119190612009565b60405180910390f35b610234600480360381019061022f9190612289565b610a56565b60405161024191906122c5565b60405180910390f35b610252610b0d565b60405161025f9190611f43565b60405180910390f35b610282600480360381019061027d9190612415565b610b9f565b005b61029e60048036038101906102999190612518565b610cc1565b005b6102ba60048036038101906102b591906125f9565b610cd7565b005b6102d660048036038101906102d19190611f9b565b610d39565b6040516102e39190611f43565b60405180910390f35b6103066004803603810190610301919061267c565b610e4b565b6040516103139190611e98565b60405180910390f35b60007f80ac58cd000000000000000000000000000000000000000000000000000000007bffffffffffffffffffffffffffffffffffffffffffffffffffffffff1916827bffffffffffffffffffffffffffffffffffffffffffffffffffffffff191614806103e757507f5b5e139f000000000000000000000000000000000000000000000000000000007bffffffffffffffffffffffffffffffffffffffffffffffffffffffff1916827bffffffffffffffffffffffffffffffffffffffffffffffffffffffff1916145b806103f757506103f682610edf565b5b9050919050565b60606000805461040d906126eb565b80601f0160208091040260200160405190810160405280929190818152602001828054610439906126eb565b80156104865780601f1061045b57610100808354040283529160200191610486565b820191906000526020600020905b81548152906001019060200180831161046957829003601f168201915b5050505050905090565b600061049b82610f49565b6004600083815260200190815260200160002060009054906101000a900473ffffffffffffffffffffffffffffffffffffffff169050919050565b60006104e1826109a5565b90508073ffffffffffffffffffffffffffffffffffffffff168373ffffffffffffffffffffffffffffffffffffffff1603610551576040517f08c379a00000000000000000000000000000000000000000000000000000000081526004016105489061278e565b60405180910390fd5b8073ffffffffffffffffffffffffffffffffffffffff16610570610f94565b73ffffffffffffffffffffffffffffffffffffffff16148061059f575061059e81610599610f94565b610e4b565b5b6105de576040517f08c379a00000000000000000000000000000000000000000000000000000000081526004016105d590612820565b60405180910390fd5b6105e88383610f9c565b505050565b606060006105fb6008611055565b67ffffffffffffffff811115610614576106136122ea565b5b60405190808252806020026020018201604052801561064d57816020015b61063a611dbc565b8152602001906001900390816106325790505b5090506000600190505b60016106636008611055565b61066d919061286f565b81101561091d576000600960008381526020019081526020016000206040518060800160405290816000820180546106a4906126eb565b80601f01602080910402602001604051908101604052809291908181526020018280546106d0906126eb565b801561071d5780601f106106f25761010080835404028352916020019161071d565b820191906000526020600020905b81548152906001019060200180831161070057829003601f168201915b50505050508152602001600182018054610736906126eb565b80601f0160208091040260200160405190810160405280929190818152602001828054610762906126eb565b80156107af5780601f10610784576101008083540402835291602001916107af565b820191906000526020600020905b81548152906001019060200180831161079257829003601f168201915b505050505081526020016002820180546107c8906126eb565b80601f01602080910402602001604051908101604052809291908181526020018280546107f4906126eb565b80156108415780601f1061081657610100808354040283529160200191610841565b820191906000526020600020905b81548152906001019060200180831161082457829003601f168201915b5050505050815260200160038201805461085a906126eb565b80601f0160208091040260200160405190810160405280929190818152602001828054610886906126eb565b80156108d35780601f106108a8576101008083540402835291602001916108d3565b820191906000526020600020905b8154815290600101906020018083116108b657829003601f168201915b505050505081525050905080836001846108ed91906128a3565b815181106108fe576108fd6128d7565b5b602002602001018190525050808061091590612906565b915050610657565b508091505090565b610936610930610f94565b82611063565b610975576040517f08c379a000000000000000000000000000000000000000000000000000000000815260040161096c906129c0565b60405180910390fd5b6109808383836110f8565b505050565b6109a083838360405180602001604052806000815250610cd7565b505050565b6000806002600084815260200190815260200160002060009054906101000a900473ffffffffffffffffffffffffffffffffffffffff169050600073ffffffffffffffffffffffffffffffffffffffff168173ffffffffffffffffffffffffffffffffffffffff1603610a4d576040517f08c379a0000000000000000000000000000000000000000000000000000000008152600401610a4490612a2c565b60405180910390fd5b80915050919050565b60008073ffffffffffffffffffffffffffffffffffffffff168273ffffffffffffffffffffffffffffffffffffffff1603610ac6576040517f08c379a0000000000000000000000000000000000000000000000000000000008152600401610abd90612abe565b60405180910390fd5b600360008373ffffffffffffffffffffffffffffffffffffffff1673ffffffffffffffffffffffffffffffffffffffff168152602001908152602001600020549050919050565b606060018054610b1c906126eb565b80601f0160208091040260200160405190810160405280929190818152602001828054610b48906126eb565b8015610b955780601f10610b6a57610100808354040283529160200191610b95565b820191906000526020600020905b815481529060010190602001808311610b7857829003601f168201915b5050505050905090565b600260075403610be4576040517f08c379a0000000000000000000000000000000000000000000000000000000008152600401610bdb90612b2a565b60405180910390fd5b6002600781905550610bf6600861135e565b6000610c026008611055565b9050610c0e3382611374565b610c2381610c1e87878787611392565b6113f1565b604051806080016040528086815260200185815260200184815260200183815250600960008381526020019081526020016000206000820151816000019081610c6c9190612cf6565b506020820151816001019081610c829190612cf6565b506040820151816002019081610c989190612cf6565b506060820151816003019081610cae9190612cf6565b5090505050600160078190555050505050565b610cd3610ccc610f94565b838361145e565b5050565b610ce8610ce2610f94565b83611063565b610d27576040517f08c379a0000000000000000000000000000000000000000000000000000000008152600401610d1e906129c0565b60405180910390fd5b610d33848484846115ca565b50505050565b6060610d4482610f49565b6000600660008481526020019081526020016000208054610d64906126eb565b80601f0160208091040260200160405190810160405280929190818152602001828054610d90906126eb565b8015610ddd5780601f10610db257610100808354040283529160200191610ddd565b820191906000526020600020905b815481529060010190602001808311610dc057829003601f168201915b505050505090506000610dee611626565b90506000815103610e03578192505050610e46565b600082511115610e38578082604051602001610e20929190612e04565b60405160208183030381529060405292505050610e46565b610e418461163d565b925050505b919050565b6000600560008473ffffffffffffffffffffffffffffffffffffffff1673ffffffffffffffffffffffffffffffffffffffff16815260200190815260200160002060008373ffffffffffffffffffffffffffffffffffffffff1673ffffffffffffffffffffffffffffffffffffffff16815260200190815260200160002060009054906101000a900460ff16905092915050565b60007f01ffc9a7000000000000000000000000000000000000000000000000000000007bffffffffffffffffffffffffffffffffffffffffffffffffffffffff1916827bffffffffffffffffffffffffffffffffffffffffffffffffffffffff1916149050919050565b610f52816116a5565b610f91576040517f08c379a0000000000000000000000000000000000000000000000000000000008152600401610f8890612a2c565b60405180910390fd5b50565b600033905090565b816004600083815260200190815260200160002060006101000a81548173ffffffffffffffffffffffffffffffffffffffff021916908373ffffffffffffffffffffffffffffffffffffffff160217905550808273ffffffffffffffffffffffffffffffffffffffff1661100f836109a5565b73ffffffffffffffffffffffffffffffffffffffff167f8c5be1e5ebec7d5bd14f71427d1e84f3dd0314c0f7b2291e5b200ac8c7c3b92560405160405180910390a45050565b600081600001549050919050565b60008061106f836109a5565b90508073ffffffffffffffffffffffffffffffffffffffff168473ffffffffffffffffffffffffffffffffffffffff1614806110b157506110b08185610e4b565b5b806110ef57508373ffffffffffffffffffffffffffffffffffffffff166110d784610490565b73ffffffffffffffffffffffffffffffffffffffff16145b91505092915050565b8273ffffffffffffffffffffffffffffffffffffffff16611118826109a5565b73ffffffffffffffffffffffffffffffffffffffff161461116e576040517f08c379a000000000000000000000000000000000000000000000000000000000815260040161116590612e9a565b60405180910390fd5b600073ffffffffffffffffffffffffffffffffffffffff168273ffffffffffffffffffffffffffffffffffffffff16036111dd576040517f08c379a00000000000000000000000000000000000000000000000000000000081526004016111d490612f2c565b60405180910390fd5b6111e8838383611711565b6111f3600082610f9c565b6001600360008573ffffffffffffffffffffffffffffffffffffffff1673ffffffffffffffffffffffffffffffffffffffff168152602001908152602001600020600082825461124391906128a3565b925050819055506001600360008473ffffffffffffffffffffffffffffffffffffffff1673ffffffffffffffffffffffffffffffffffffffff168152602001908152602001600020600082825461129a919061286f565b92505081905550816002600083815260200190815260200160002060006101000a81548173ffffffffffffffffffffffffffffffffffffffff021916908373ffffffffffffffffffffffffffffffffffffffff160217905550808273ffffffffffffffffffffffffffffffffffffffff168473ffffffffffffffffffffffffffffffffffffffff167fddf252ad1be2c89b69c2b068fc378daa952ba7f163c4a11628f55a4df523b3ef60405160405180910390a4611359838383611716565b505050565b6001816000016000828254019250508190555050565b61138e82826040518060200160405280600081525061171b565b5050565b60606000858585856040516020016113ad94939291906131ac565b60405160208183030381529060405290506113c781611776565b6040516020016113d791906132a4565b604051602081830303815290604052915050949350505050565b6113fa826116a5565b611439576040517f08c379a000000000000000000000000000000000000000000000000000000000815260040161143090613338565b60405180910390fd5b806006600084815260200190815260200160002090816114599190612cf6565b505050565b8173ffffffffffffffffffffffffffffffffffffffff168373ffffffffffffffffffffffffffffffffffffffff16036114cc576040517f08c379a00000000000000000000000000000000000000000000000000000000081526004016114c3906133a4565b60405180910390fd5b80600560008573ffffffffffffffffffffffffffffffffffffffff1673ffffffffffffffffffffffffffffffffffffffff16815260200190815260200160002060008473ffffffffffffffffffffffffffffffffffffffff1673ffffffffffffffffffffffffffffffffffffffff16815260200190815260200160002060006101000a81548160ff0219169083151502179055508173ffffffffffffffffffffffffffffffffffffffff168373ffffffffffffffffffffffffffffffffffffffff167f17307eab39ab6107e8899845ad3d59bd9653f200f220920489ca2b5937696c31836040516115bd9190611e98565b60405180910390a3505050565b6115d58484846110f8565b6115e1848484846118d9565b611620576040517f08c379a000000000000000000000000000000000000000000000000000000000815260040161161790613436565b60405180910390fd5b50505050565b606060405180602001604052806000815250905090565b606061164882610f49565b6000611652611626565b90506000815111611672576040518060200160405280600081525061169d565b8061167c84611a60565b60405160200161168d929190612e04565b6040516020818303038152906040525b915050919050565b60008073ffffffffffffffffffffffffffffffffffffffff166002600084815260200190815260200160002060009054906101000a900473ffffffffffffffffffffffffffffffffffffffff1673ffffffffffffffffffffffffffffffffffffffff1614159050919050565b505050565b505050565b6117258383611bc0565b61173260008484846118d9565b611771576040517f08c379a000000000000000000000000000000000000000000000000000000000815260040161176890613436565b60405180910390fd5b505050565b60606000825103611798576040518060200160405280600081525090506118d4565b60006040518060600160405280604081526020016136e560409139905060006003600285516117c7919061286f565b6117d19190613485565b60046117dd91906134b6565b67ffffffffffffffff8111156117f6576117f56122ea565b5b6040519080825280601f01601f1916602001820160405280156118285781602001600182028036833780820191505090505b509050600182016020820185865187015b80821015611894576003820191508151603f8160121c168501518453600184019350603f81600c1c168501518453600184019350603f8160061c168501518453600184019350603f8116850151845360018401935050611839565b50506003865106600181146118b057600281146118c3576118cb565b603d6001830353603d60028303536118cb565b603d60018303535b50505080925050505b919050565b60006118fa8473ffffffffffffffffffffffffffffffffffffffff16611d99565b15611a53578373ffffffffffffffffffffffffffffffffffffffff1663150b7a02611923610f94565b8786866040518563ffffffff1660e01b8152600401611945949392919061354d565b6020604051808303816000875af192505050801561198157506040513d601f19601f8201168201806040525081019061197e91906135ae565b60015b611a03573d80600081146119b1576040519150601f19603f3d011682016040523d82523d6000602084013e6119b6565b606091505b5060008151036119fb576040517f08c379a00000000000000000000000000000000000000000000000000000000081526004016119f290613436565b60405180910390fd5b805181602001fd5b63150b7a0260e01b7bffffffffffffffffffffffffffffffffffffffffffffffffffffffff1916817bffffffffffffffffffffffffffffffffffffffffffffffffffffffff191614915050611a58565b600190505b949350505050565b606060008203611aa7576040518060400160405280600181526020017f30000000000000000000000000000000000000000000000000000000000000008152509050611bbb565b600082905060005b60008214611ad9578080611ac290612906565b915050600a82611ad29190613485565b9150611aaf565b60008167ffffffffffffffff811115611af557611af46122ea565b5b6040519080825280601f01601f191660200182016040528015611b275781602001600182028036833780820191505090505b5090505b60008514611bb457600182611b4091906128a3565b9150600a85611b4f91906135db565b6030611b5b919061286f565b60f81b818381518110611b7157611b706128d7565b5b60200101907effffffffffffffffffffffffffffffffffffffffffffffffffffffffffffff1916908160001a905350600a85611bad9190613485565b9450611b2b565b8093505050505b919050565b600073ffffffffffffffffffffffffffffffffffffffff168273ffffffffffffffffffffffffffffffffffffffff1603611c2f576040517f08c379a0000000000000000000000000000000000000000000000000000000008152600401611c2690613658565b60405180910390fd5b611c38816116a5565b15611c78576040517f08c379a0000000000000000000000000000000000000000000000000000000008152600401611c6f906136c4565b60405180910390fd5b611c8460008383611711565b6001600360008473ffffffffffffffffffffffffffffffffffffffff1673ffffffffffffffffffffffffffffffffffffffff1681526020019081526020016000206000828254611cd4919061286f565b92505081905550816002600083815260200190815260200160002060006101000a81548173ffffffffffffffffffffffffffffffffffffffff021916908373ffffffffffffffffffffffffffffffffffffffff160217905550808273ffffffffffffffffffffffffffffffffffffffff16600073ffffffffffffffffffffffffffffffffffffffff167fddf252ad1be2c89b69c2b068fc378daa952ba7f163c4a11628f55a4df523b3ef60405160405180910390a4611d9560008383611716565b5050565b6000808273ffffffffffffffffffffffffffffffffffffffff163b119050919050565b6040518060800160405280606081526020016060815260200160608152602001606081525090565b6000604051905090565b600080fd5b600080fd5b60007fffffffff0000000000000000000000000000000000000000000000000000000082169050919050565b611e2d81611df8565b8114611e3857600080fd5b50565b600081359050611e4a81611e24565b92915050565b600060208284031215611e6657611e65611dee565b5b6000611e7484828501611e3b565b91505092915050565b60008115159050919050565b611e9281611e7d565b82525050565b6000602082019050611ead6000830184611e89565b92915050565b600081519050919050565b600082825260208201905092915050565b60005b83811015611eed578082015181840152602081019050611ed2565b60008484015250505050565b6000601f19601f8301169050919050565b6000611f1582611eb3565b611f1f8185611ebe565b9350611f2f818560208601611ecf565b611f3881611ef9565b840191505092915050565b60006020820190508181036000830152611f5d8184611f0a565b905092915050565b6000819050919050565b611f7881611f65565b8114611f8357600080fd5b50565b600081359050611f9581611f6f565b92915050565b600060208284031215611fb157611fb0611dee565b5b6000611fbf84828501611f86565b91505092915050565b600073ffffffffffffffffffffffffffffffffffffffff82169050919050565b6000611ff382611fc8565b9050919050565b61200381611fe8565b82525050565b600060208201905061201e6000830184611ffa565b92915050565b61202d81611fe8565b811461203857600080fd5b50565b60008135905061204a81612024565b92915050565b6000806040838503121561206757612066611dee565b5b60006120758582860161203b565b925050602061208685828601611f86565b9150509250929050565b600081519050919050565b600082825260208201905092915050565b6000819050602082019050919050565b600082825260208201905092915050565b60006120d882611eb3565b6120e281856120bc565b93506120f2818560208601611ecf565b6120fb81611ef9565b840191505092915050565b6000608083016000830151848203600086015261212382826120cd565b9150506020830151848203602086015261213d82826120cd565b9150506040830151848203604086015261215782826120cd565b9150506060830151848203606086015261217182826120cd565b9150508091505092915050565b600061218a8383612106565b905092915050565b6000602082019050919050565b60006121aa82612090565b6121b4818561209b565b9350836020820285016121c6856120ac565b8060005b8581101561220257848403895281516121e3858261217e565b94506121ee83612192565b925060208a019950506001810190506121ca565b50829750879550505050505092915050565b6000602082019050818103600083015261222e818461219f565b905092915050565b60008060006060848603121561224f5761224e611dee565b5b600061225d8682870161203b565b935050602061226e8682870161203b565b925050604061227f86828701611f86565b9150509250925092565b60006020828403121561229f5761229e611dee565b5b60006122ad8482850161203b565b91505092915050565b6122bf81611f65565b82525050565b60006020820190506122da60008301846122b6565b92915050565b600080fd5b600080fd5b7f4e487b7100000000000000000000000000000000000000000000000000000000600052604160045260246000fd5b61232282611ef9565b810181811067ffffffffffffffff82111715612341576123406122ea565b5b80604052505050565b6000612354611de4565b90506123608282612319565b919050565b600067ffffffffffffffff8211156123805761237f6122ea565b5b61238982611ef9565b9050602081019050919050565b82818337600083830152505050565b60006123b86123b384612365565b61234a565b9050828152602081018484840111156123d4576123d36122e5565b5b6123df848285612396565b509392505050565b600082601f8301126123fc576123fb6122e0565b5b813561240c8482602086016123a5565b91505092915050565b6000806000806080858703121561242f5761242e611dee565b5b600085013567ffffffffffffffff81111561244d5761244c611df3565b5b612459878288016123e7565b945050602085013567ffffffffffffffff81111561247a57612479611df3565b5b612486878288016123e7565b935050604085013567ffffffffffffffff8111156124a7576124a6611df3565b5b6124b3878288016123e7565b925050606085013567ffffffffffffffff8111156124d4576124d3611df3565b5b6124e0878288016123e7565b91505092959194509250565b6124f581611e7d565b811461250057600080fd5b50565b600081359050612512816124ec565b92915050565b6000806040838503121561252f5761252e611dee565b5b600061253d8582860161203b565b925050602061254e85828601612503565b9150509250929050565b600067ffffffffffffffff821115612573576125726122ea565b5b61257c82611ef9565b9050602081019050919050565b600061259c61259784612558565b61234a565b9050828152602081018484840111156125b8576125b76122e5565b5b6125c3848285612396565b509392505050565b600082601f8301126125e0576125df6122e0565b5b81356125f0848260208601612589565b91505092915050565b6000806000806080858703121561261357612612611dee565b5b60006126218782880161203b565b94505060206126328782880161203b565b935050604061264387828801611f86565b925050606085013567ffffffffffffffff81111561266457612663611df3565b5b612670878288016125cb565b91505092959194509250565b6000806040838503121561269357612692611dee565b5b60006126a18582860161203b565b92505060206126b28582860161203b565b9150509250929050565b7f4e487b7100000000000000000000000000000000000000000000000000000000600052602260045260246000fd5b6000600282049050600182168061270357607f821691505b602082108103612716576127156126bc565b5b50919050565b7f4552433732313a20617070726f76616c20746f2063757272656e74206f776e6560008201527f7200000000000000000000000000000000000000000000000000000000000000602082015250565b6000612778602183611ebe565b91506127838261271c565b604082019050919050565b600060208201905081810360008301526127a78161276b565b9050919050565b7f4552433732313a20617070726f76652063616c6c6572206973206e6f7420746f60008201527f6b656e206f776e6572206e6f7220617070726f76656420666f7220616c6c0000602082015250565b600061280a603e83611ebe565b9150612815826127ae565b604082019050919050565b60006020820190508181036000830152612839816127fd565b9050919050565b7f4e487b7100000000000000000000000000000000000000000000000000000000600052601160045260246000fd5b600061287a82611f65565b915061288583611f65565b925082820190508082111561289d5761289c612840565b5b92915050565b60006128ae82611f65565b91506128b983611f65565b92508282039050818111156128d1576128d0612840565b5b92915050565b7f4e487b7100000000000000000000000000000000000000000000000000000000600052603260045260246000fd5b600061291182611f65565b91507fffffffffffffffffffffffffffffffffffffffffffffffffffffffffffffffff820361294357612942612840565b5b600182019050919050565b7f4552433732313a2063616c6c6572206973206e6f7420746f6b656e206f776e6560008201527f72206e6f7220617070726f766564000000000000000000000000000000000000602082015250565b60006129aa602e83611ebe565b91506129b58261294e565b604082019050919050565b600060208201905081810360008301526129d98161299d565b9050919050565b7f4552433732313a20696e76616c696420746f6b656e2049440000000000000000600082015250565b6000612a16601883611ebe565b9150612a21826129e0565b602082019050919050565b60006020820190508181036000830152612a4581612a09565b9050919050565b7f4552433732313a2061646472657373207a65726f206973206e6f74206120766160008201527f6c6964206f776e65720000000000000000000000000000000000000000000000602082015250565b6000612aa8602983611ebe565b9150612ab382612a4c565b604082019050919050565b60006020820190508181036000830152612ad781612a9b565b9050919050565b7f5265656e7472616e637947756172643a207265656e7472616e742063616c6c00600082015250565b6000612b14601f83611ebe565b9150612b1f82612ade565b602082019050919050565b60006020820190508181036000830152612b4381612b07565b9050919050565b60008190508160005260206000209050919050565b60006020601f8301049050919050565b600082821b905092915050565b600060088302612bac7fffffffffffffffffffffffffffffffffffffffffffffffffffffffffffffffff82612b6f565b612bb68683612b6f565b95508019841693508086168417925050509392505050565b6000819050919050565b6000612bf3612bee612be984611f65565b612bce565b611f65565b9050919050565b6000819050919050565b612c0d83612bd8565b612c21612c1982612bfa565b848454612b7c565b825550505050565b600090565b612c36612c29565b612c41818484612c04565b505050565b5b81811015612c6557612c5a600082612c2e565b600181019050612c47565b5050565b601f821115612caa57612c7b81612b4a565b612c8484612b5f565b81016020851015612c93578190505b612ca7612c9f85612b5f565b830182612c46565b50505b505050565b600082821c905092915050565b6000612ccd60001984600802612caf565b1980831691505092915050565b6000612ce68383612cbc565b9150826002028217905092915050565b612cff82611eb3565b67ffffffffffffffff811115612d1857612d176122ea565b5b612d2282546126eb565b612d2d828285612c69565b600060209050601f831160018114612d605760008415612d4e578287015190505b612d588582612cda565b865550612dc0565b601f198416612d6e86612b4a565b60005b82811015612d9657848901518255600182019150602085019450602081019050612d71565b86831015612db35784890151612daf601f891682612cbc565b8355505b6001600288020188555050505b505050505050565b600081905092915050565b6000612dde82611eb3565b612de88185612dc8565b9350612df8818560208601611ecf565b80840191505092915050565b6000612e108285612dd3565b9150612e1c8284612dd3565b91508190509392505050565b7f4552433732313a207472616e736665722066726f6d20696e636f72726563742060008201527f6f776e6572000000000000000000000000000000000000000000000000000000602082015250565b6000612e84602583611ebe565b9150612e8f82612e28565b604082019050919050565b60006020820190508181036000830152612eb381612e77565b9050919050565b7f4552433732313a207472616e7366657220746f20746865207a65726f2061646460008201527f7265737300000000000000000000000000000000000000000000000000000000602082015250565b6000612f16602483611ebe565b9150612f2182612eba565b604082019050919050565b60006020820190508181036000830152612f4581612f09565b9050919050565b7f7b00000000000000000000000000000000000000000000000000000000000000600082015250565b6000612f82600183612dc8565b9150612f8d82612f4c565b600182019050919050565b7f226e616d65223a20220000000000000000000000000000000000000000000000600082015250565b6000612fce600983612dc8565b9150612fd982612f98565b600982019050919050565b7f222c000000000000000000000000000000000000000000000000000000000000600082015250565b600061301a600283612dc8565b915061302582612fe4565b600282019050919050565b7f22696d616765223a202200000000000000000000000000000000000000000000600082015250565b6000613066600a83612dc8565b915061307182613030565b600a82019050919050565b7f226465736372697074696f6e223a202200000000000000000000000000000000600082015250565b60006130b2601083612dc8565b91506130bd8261307c565b601082019050919050565b7f2273796d6d65747269634b6579223a2022000000000000000000000000000000600082015250565b60006130fe601183612dc8565b9150613109826130c8565b601182019050919050565b7f2200000000000000000000000000000000000000000000000000000000000000600082015250565b600061314a600183612dc8565b915061315582613114565b600182019050919050565b7f7d00000000000000000000000000000000000000000000000000000000000000600082015250565b6000613196600183612dc8565b91506131a182613160565b600182019050919050565b60006131b782612f75565b91506131c282612fc1565b91506131ce8287612dd3565b91506131d98261300d565b91506131e482613059565b91506131f08286612dd3565b91506131fb8261300d565b9150613206826130a5565b91506132128285612dd3565b915061321d8261300d565b9150613228826130f1565b91506132348284612dd3565b915061323f8261313d565b915061324a82613189565b915081905095945050505050565b7f646174613a6170706c69636174696f6e2f6a736f6e3b6261736536342c000000600082015250565b600061328e601d83612dc8565b915061329982613258565b601d82019050919050565b60006132af82613281565b91506132bb8284612dd3565b915081905092915050565b7f45524337323155524953746f726167653a2055524920736574206f66206e6f6e60008201527f6578697374656e7420746f6b656e000000000000000000000000000000000000602082015250565b6000613322602e83611ebe565b915061332d826132c6565b604082019050919050565b6000602082019050818103600083015261335181613315565b9050919050565b7f4552433732313a20617070726f766520746f2063616c6c657200000000000000600082015250565b600061338e601983611ebe565b915061339982613358565b602082019050919050565b600060208201905081810360008301526133bd81613381565b9050919050565b7f4552433732313a207472616e7366657220746f206e6f6e20455243373231526560008201527f63656976657220696d706c656d656e7465720000000000000000000000000000602082015250565b6000613420603283611ebe565b915061342b826133c4565b604082019050919050565b6000602082019050818103600083015261344f81613413565b9050919050565b7f4e487b7100000000000000000000000000000000000000000000000000000000600052601260045260246000fd5b600061349082611f65565b915061349b83611f65565b9250826134ab576134aa613456565b5b828204905092915050565b60006134c182611f65565b91506134cc83611f65565b92508282026134da81611f65565b915082820484148315176134f1576134f0612840565b5b5092915050565b600081519050919050565b600082825260208201905092915050565b600061351f826134f8565b6135298185613503565b9350613539818560208601611ecf565b61354281611ef9565b840191505092915050565b60006080820190506135626000830187611ffa565b61356f6020830186611ffa565b61357c60408301856122b6565b818103606083015261358e8184613514565b905095945050505050565b6000815190506135a881611e24565b92915050565b6000602082840312156135c4576135c3611dee565b5b60006135d284828501613599565b91505092915050565b60006135e682611f65565b91506135f183611f65565b92508261360157613600613456565b5b828206905092915050565b7f4552433732313a206d696e7420746f20746865207a65726f2061646472657373600082015250565b6000613642602083611ebe565b915061364d8261360c565b602082019050919050565b6000602082019050818103600083015261367181613635565b9050919050565b7f4552433732313a20746f6b656e20616c7265616479206d696e74656400000000600082015250565b60006136ae601c83611ebe565b91506136b982613678565b602082019050919050565b600060208201905081810360008301526136dd816136a1565b905091905056fe4142434445464748494a4b4c4d4e4f505152535455565758595a6162636465666768696a6b6c6d6e6f707172737475767778797a303132333435363738392b2fa264697066735822122020494eae1c716fa65049a582dce7b155e369759fdd5a0c4132c329e545dc934564736f6c63430008110033",
  "linkReferences": {},
  "deployedLinkReferences": {}
}